:100000000C9460020C94A7020C94A7020C94A70213
:100010000C940B0A0C94A7020C94A7020C94A70250
:100020000C94A7020C94A7020C94681E0C943C1F1D
:100030000C94CB160C94A7020C94A7020C94A70264
:100040000C94A7020C94A7020C94A7020C94A7028C
:100050000C94A7020C9431170C94A7020C94A702DD
:100060000C94A7020C94A7020C94A7020C94A7026C
:100070000C94A7020C94A7020C94A7020C94A7025C
:100080000C94A7020C94A7020C94A7020C94A7024C
:100090000C94A7020C94A7020C94A7020C94A7023C
:1000A0000C94A7020C94A7020C94A70229001E002E
:1000B0001F002000210022000000000000002B0093
:1000C00014001A00080015001700000000000000CE
:1000D000E00004001600070009000A00000000000C
:1000E0000000E1001D001B000600190005000000D3
:1000F00000000000E200E30000002C00000000000F
:100100000000000000002300240025002600270036
:100110002D002E00310035001C0018000C001200CC
:1001200013002F0030002A0000000B000D000E000D
:100130000F00330034002800000000001100100000
:10014000360037003800E5000151000000002C00A7
:1001500002530000E700E60000000000000000007D
:1001600001003A003B003C003D003E000000000062
:100170000000390001000100010001000100000041
:10018000000000000100810080007F0001000100EC
:10019000000000000000010001000100010001005A
:1001A000010000000000000001000100000001004B
:1001B000000000000000000000003F00400041007F
:1001C000420043004400450049004C00010001008A
:1001D00046004700480052000100010000000100F5
:1001E00001004A004B0050004F00010000000000D9
:1001F000010001004D004E0051000100010000000F
:1002000000000100010000007800005C0000000018
:1002100000000000010001000100010001000100D8
:1002200000000000000001000100010001000100C9
:100230000100000000000000035101000100010066
:1002400001000100000000000000010001000100A9
:100250000100010001000000000000000100010099
:100260000000F40000000000000000000000010099
:100270000100010001000100010001000100010076
:100280000100010001000100010001000100010066
:100290000000F200F100F000F30001000100010095
:1002A0000000000001000100010001000100010048
:1002B0000100000000000100010000000100010039
:1002C000000000000000000001000100010001002A
:1002D0000100010000000000000001000100010019
:1002E0000100010001000000000000000100010009
:1002F00001000100010001000000000000000100F9
:1003000001000100010001000100000000000000E8
:10031000010001000000F5000000000000000000E6
:1003200000000100010001000100010001000100C6
:1003300001000100010001000100010001000100B5
:10034000010001000000FB00FA00F900FC000100C0
:100350000100010000000000010001000100010097
:100360000100010001000000000001000100000088
:100370000100010000000000000000000403300044
:1003800000001003630068006F0063006F00360018
:100390003000000018034E0061006F0074006F0011
:1003A0002000540061006B0061006900000004033C
:1003B000090409023B00020100A0FA09040000013F
:1003C00003010100092111010001224000070581FC
:1003D0000308000A090401000103000000092111BB
:1003E0000100012281000705820320000A1201108A
:1003F0000100000008C0C000600100010203010507
:10040000010902A10185020901A1000509190129BB
:10041000051500250195057501810295017503817A
:10042000010501093009311581257F950275088183
:100430000609381581257F950175088106050C0A86
:1004400038021581257F950175088106C0C0050118
:100450000980A101850319012AB700150126B700FB
:10046000950175108100C0050C0901A101850419D1
:10047000012AA002150126A002950175108100C075
:1004800005010906A101050719E029E71500250165
:10049000950875018102950175088101050719000C
:1004A00029FF150026FF009506750881000508192B
:1004B000012905950575019102950175039101C00A
:1004C00011241FBECFEFDAE0DEBFCDBF04B603FEBE
:1004D00027C08091A8029091A902A091AA02B09190
:1004E000AB028730904BA740B04BD1F41092A802DA
:1004F0001092A9021092AA021092AB0214BE84B705
:10050000877F84BF0FB6F894A895809160008861BA
:1005100080936000109260000FBEE0E0F8E3099560
:1005200011E0A0E0B1E0E0E1F3E402C005900D923B
:10053000A039B107D9F722E0A0E9B1E001C01D92CE
:10054000A83AB207E1F70E94991B0C945E210C9423
:10055000000081E0089581E008950C94AB021F93A0
:10056000CF93DF9300D000D00F92CDB7DEB7498391
:100570005A836B832091C10189819A8121111BC00B
:100580006623A9F00E943B14182F682F89819A8155
:100590000E94E71369817A81812F0F900F900F904D
:1005A0000F900F90DF91CF911F910C9456030E94F2
:1005B0001314182FEFCF0E943B1469817A81EDCF7D
:1005C000FC01408151816281738184810C94AF026E
:1005D0000E947F15811102C00E941C160C946205B6
:1005E0000C94650508950C94F20281E008950C9432
:1005F000F502CF93C82F0E94F3028C2FCF910C9459
:10060000F70208950E94270F0E9401032FEF84E351
:100610009CE0215080409040E1F700C0000087E757
:1006200097E790930108809300080C9455170F9357
:100630001F93CF93DF93EC010E94E0028C01BE0177
:100640000E94AD02882329F1BE01C8010E94CD0796
:100650008823F9F0BE01C8010E940E088823C9F062
:10066000BE01C8010E943109882399F08A8188233C
:1006700039F001158CE5180751F00E3D1C4579F055
:10068000CE01DF91CF911F910F910C94A9020E948E
:10069000020380E0DF91CF911F910F9108950E9496
:1006A0001C16F7CF90E080E008950895972F70E032
:1006B00029E0929F600D711D1124FB019AE5899F2D
:1006C000E00DF11D1124EE0FFF1FE455FF4F859142
:1006D00094910895FC01EE0FFF1FE458FC4F8591A3
:1006E00094910895CF93DF930E9456030E9487044C
:1006F000EC01811520E5920708F042C0811530E435
:10070000930708F0BDC0883E910528F5803E91050D
:1007100008F09DC0883A910588F4853A910508F063
:100720008FC08130910509F492C0009709F48FC001
:10073000049708F08CC0D0E0C0E089C08F3B9105E1
:1007400008F489C0805C9109C03CD105A0F30E94E7
:100750006A03EC017CC08115904250F4C11581E020
:10076000D80708F074C0C03FD10528F3D0656FC02A
:10077000C11590E3D90708F079C0CE019F70E7CF8B
:10078000811525E5920758F5811534E5930708F0A2
:10079000A6C0811542E5940750F4C11581E5D8073C
:1007A00008F471C0DC2FCC27C16FD06A50C0982FDD
:1007B000969596959E0123703327C115D34508F071
:1007C0007FC0C1E0D0E002C0CC0FDD1F2A95E2F768
:1007D00020E2929FC0011124C82BD92B6FC0C115F4
:1007E00089E5D807A8F4C11598E5D90708F07CC0B9
:1007F000C11526E5D20708F09ECF8C2F0E941E055A
:10080000C82FD0E0DC2FCC27CC27DF71D0621FC0EF
:10081000C1153AE5D30708F46CC0CE019056811596
:10082000904208F088CF8D2F8F710E941E0590E0B6
:10083000982F882788279F719C012C2BE901E6CFF0
:10084000C55AD0E0C75BDE4FC881D0E0D064CE018E
:10085000DF91CF910895C85AD0E0CC0FDD1FC55E5F
:10086000DE4F0990D881C02DD464F1CFCE019927F5
:10087000D3FF03C0EC01D86CEACFEC01D06CE7CF1A
:10088000DF70D06AE4CFCE01E4E096958795EA95D3
:10089000E1F783702C2F26952695237090E2299FEF
:1008A00090011124382B8C2F8370C1E0D0E002C05E
:1008B000CC0FDD1F8A95E2F7C22BD32BDC68C7CFA4
:1008C000C1E0D0E002C0CC0FDD1F2A95E2F730E294
:1008D000939FC0011124C82BD92BDA68B8CFD82F29
:1008E000CC27C46FD06AB3CFDC2FCC27C06FD06ABF
:1008F000AECF8C2F8F700E941E0534E0D695C79521
:100900003A95E1F7CF709C2FEC01D069A0CF8238E7
:100910009105B1F1B0F48133910509F475C048F443
:100920008932910509F469C08A32910509F473C0CE
:1009300008958533910509F459C08933910501F172
:100940000895833E9105A9F138F4803E9105F9F0B0
:10095000823E910549F10895863E9105A9F1873EB1
:100960009105C9F1843E910519F520919A0221FF64
:100970001FC08091990284FD14C087EE90E0089515
:10098000209199022370A1F080EE90E008952091CB
:10099000990220FD47C030919A0230FF09C024FF20
:1009A00044C090E080E004C02091990222FDF7CF7E
:1009B00008952091990222FD3BC030919A0230FDAA
:1009C000E3CF24FFF5CFEDCF2091990223FFF0CFA5
:1009D00024FDE7CFD2CF2091990223FD2CC0309186
:1009E0009A0231FFEECF84EE90E0089520919902B3
:1009F00025FFDECF89E290E008952091990225FF3E
:100A0000D7CF85E390E008952091990226FFD0CFBB
:100A10008AE290E008952091990226FFC9CF81E3F0
:100A200090E0089589E390E0089583EE90E00895C2
:100A300082EE90E0089586EE90E0089590919902FC
:100A400092FF06C0282F28712830F9F4877F846030
:100A500093FF06C0282F28712831F1F4877E846126
:100A600020919A0220FF06C0382F38713830D9F40F
:100A7000877F816021FF06C0282F28712831D1F49B
:100A8000877E816194FD877E0895282F247124300C
:100A9000F9F68B7F8860DCCF282F2471243101F791
:100AA0008B7E8861DDCF382F3171313019F78E7F21
:100AB0008860E0CF282F2171213121F78E7E886157
:100AC000E1CF08950C94610508950C946405E82F16
:100AD000F0E0EE0FFF1FE358FD4F808191810895F4
:100AE000089580EA8A95F1F7089508950E94130702
:100AF000809100018091000195E0811190E0909338
:100B0000920285E0891B80939102A5E5B1E061E046
:100B100070E08D91E82FE295EF70F0E041A18F70C9
:100B20009B0101C0220F8A95EAF7922F909594239A
:100B300091A382A1822B82A381E0AA35B80749F74D
:100B4000ACE4B1E061E070E08D91E82FE295EF70E8
:100B5000F0E041A18F709B0101C0220F8A95EAF756
:100B6000922F9095942391A382A1822B82A381E05E
:100B7000A535B80749F7E9E6F2E0ADE7B2E08DE761
:100B800092E0119211921D921D928E179F07C9F744
:100B900085E00E94B8060E94E8020C941D070E949E
:100BA000F7068823E9F18091910290E0880F991F60
:100BB00083589D4F0E94300781112FC08091900172
:100BC0008F5F80939001863030F18091910290E0A8
:100BD000FC01EE0FFF1FE358FD4F11821082FC0154
:100BE000EE0FFF1FE158FD4F11821082FC01EE0F46
:100BF000FF1FEF57FD4F11821082FC01EE0FFF1F08
:100C0000ED57FD4F11821082880F991FFC01EB57A1
:100C1000FD4F118210820C94F00210929001FBCFD4
:100C20008091920290E0880F991F83589D4F0E94F7
:100C30004D070C9475054F925F926F927F928F9241
:100C40009F92AF92BF92CF92DF92EF92FF920F935B
:100C50001F93CF93DF9399E6E92E92E0F92E25E5D5
:100C6000A22E21E0B22E512C88248394912CD701FE
:100C70006D907D907D01FD01129212928F01D50140
:100C80008D915D01C82FC295CF70D0E099A18F7072
:100C9000640101C0CC0C8A95EAF7892F8C2989A3BD
:100CA0008AA14C2C409484218AA30E947105ECE413
:100CB000F1E030E020E06191A62FA295AF70B0E0A6
:100CC00090968C91D8014D915C9190E06F7002C02C
:100CD000959587956A95E2F780FD47C0C401022E7D
:100CE00002C0880F991F0A94E2F7482B592BD801AC
:100CF00011965C934E932F5F3F4F29303105D9F603
:100D000089A1482249A28AA1C82ACAA281E02D91BC
:100D10003C912615370509F480E0582AB3E7EB1615
:100D2000B2E0FB0609F0A3CF6091920270E0660F7B
:100D3000771F63587D4F252D45E089E692E00E949C
:100D4000B9060E94CF05852DDF91CF911F910F919C
:100D5000FF90EF90DF90CF90BF90AF909F908F90DB
:100D60007F906F905F904F90089590E080E0BDCFAE
:100D70000895FF920F931F93CF93DF93F82E092FBF
:100D8000162FD72FC42F222349F081E0809393019F
:100D90000E94FB16909392018093910180919301A0
:100DA0008823A1F080919101909192010E940717F0
:100DB000069760F0EF2DF02FA12FBD2F90E080E07F
:100DC000D0E08C179D0744F010929301DF91CF91F2
:100DD0001F910F91FF900895219131912D933D9393
:100DE0000196EFCF5098589889B1817008958091FD
:100DF0009401811111C08091D80080618093D80046
:100E00008AE18A95F1F700C09091D900892F81700D
:100E100090FF82E08093940181E090919401913061
:100E200009F080E008950E94F206809300010E947C
:100E3000F70681110C94240708950E94F70681118A
:100E400002C00C942A07089561E070E081E091E00F
:100E50000C94BC0961E070E081E091E00C94C3095E
:100E6000CF93DF93D82FC92F0E945D0A009799F482
:100E7000ED2FFC2FDC01AA0FBB1FAA56BE4F2D91F0
:100E80003C912193319301968530910599F781E04A
:100E9000DF91CF91089580E0FBCF30E020E0FC01AE
:100EA00041915191CF01F901EE0FFF1FEA56FE4F1C
:100EB000518340832F5F3F4F2530310581F70895DF
:100EC0000F931F93CF93DF93C62FD42F022FFC01D4
:100ED00082818823C9F06093A2010E94FB1690933F
:100EE000A1018093A00180E28C0F883008F050C0EF
:100EF000C77081E001C0880FCA95EAF7DF91CF91F2
:100F00001F910F910C948D0C1091A201161335C0F6
:100F10008091A0019091A1010E940717883C910542
:100F200060F5C0E2CD0F1D17B9F080E2810F883067
:100F300040F4177081E001C0880F1A95EAF70E940B
:100F4000940CC83048F481E09D2F977001C0880F41
:100F50009A95EAF70E948D0C802F0E947A0CC83077
:100F6000B8F4D77081E001C0880FDA95EAF7DF9115
:100F7000CF911F910F910C94940C80E28C0F8830CC
:100F800038F4C77081E001C0880FCA95EAF7EFCF47
:100F9000DF91CF911F910F9108959C01CB01233FC9
:100FA0004CE5340731F190F4283DFCE53F07E9F0CA
:100FB000293D4CE5340769F1273D3C4579F426E2AB
:100FC00041EE61EE0E94600780E00895253FFCE558
:100FD0003F07B9F090F0263F3C45B9F0FC01828113
:100FE0008823D1F01092A201089527E245EE65EE24
:100FF000E9CF26E241EE60EEE5CF27E245EE64EE72
:10100000E1CF26E241EE62EEDDCF27E245EE66EE6D
:10101000D9CF28E241E0EBCF81E00895CF93DF9371
:10102000EC01FB018281882309F419C1C230FCE57F
:10103000DF07C0F1C6319CE5D90730F09E012A5F79
:101040003C452930310570F50E94921590939A0223
:1010500080939902C031ECE5DE0709F4CFC008F0B7
:101060005BC0C8308CE5D80709F4B6C088F5C43039
:10107000ECE5DE0709F4A8C0C0F4C2308CE5D8075F
:1010800009F49CC0809199028260C330DC4509F468
:1010900098C08091990290919A020E94A0150E9496
:1010A000270F80E0DF91CF910895809199028061B0
:1010B000C630ECE5DE0709F484C0809199028860AF
:1010C000C730DC4508F47DC080919902806279C008
:1010D000CC308CE5D80709F489C070F4809199026E
:1010E0008C60CA30ECE5DE0709F46BC008F478C008
:1010F000809199028E7F65C0CE308CE5D80709F4C7
:1011000079C0809199028B7FCF30DC4508F459C0BB
:10111000809199028F7E55C0CB3FECE5DE0709F444
:1011200057C030F5C3318CE5D80709F46FC078F4A7
:10113000C131ECE5DE0709F465C0C231DC4509F0D8
:10114000A8CF0E94270F809199028F773AC0C531AE
:101150008CE5D80709F462C008F476C080919A0241
:101160008160CA3FDC4509F094CF80939A0291CF09
:10117000CF3FFCE5DF0709F44DC088F480919A0267
:101180008D7FCD3F9CE5D90781F380919A028E7FB8
:10119000CE3FDC4550F380919A028360E6CFC130A8
:1011A000FDE5DF0709F459C008F444C080E0C2300F
:1011B000DD4509F06ECF0E941E166BCF809199021B
:1011C00081608093990265CF809199028460F9CF04
:1011D00080919A028260C9CF809199028064F1CF98
:1011E0000E94270F809199028068EBCF809199022D
:1011F0008D7FE7CF80919902877FE3CF809199021D
:101200008F7DDFCF809199028F7BDBCF8091990218
:10121000837FD7CF80919A028C7FA7CF809199024C
:1012200082FB992790F921E0922790FB82F990FBAD
:1012300083F9C7CF80919A02982F909591708E7FF5
:10124000892B90FB81F991CF0E94270F90919902F1
:10125000892F97FB87F98058B4CF81E0ACCF81E02C
:1012600021CFCF93DF93EB0186319C4511F50E948E
:10127000D0149A81992399F08A7A91E009F490E048
:101280009093A301811109C089E20E94AB140E94CE
:101290001C1580E0DF91CF91089585E3F6CF809112
:1012A000A301811104C089E20E94B214F0CF85E34A
:1012B000FBCF81E0EFCF8EE14B9B02C08150E1F785
:1012C0004B9BFECF08955B9880E28A95F1F75B9A7D
:1012D0000895FC013BE03A95F1F798E020E080E0CA
:1012E00031E040E14A95F1F7880F4B9B02C08160E5
:1012F000232742E04A95F1F7000040E14A95F1F7D3
:10130000915079F790E19A95F1F799B132E03A95D9
:10131000F1F7000040E14A95F1F793FB992790F926
:1013200092272081920F90830895EF92FF920F935E
:101330001F93CF93DF930F92CDB7DEB719828C0145
:101340007C01E60EF11C0E151F0561F481E0998108
:10135000911180E00F90DF91CF911F910F91FF903D
:10136000EF9008950E945B09CE0101960E946909E1
:10137000F80181938F01E7CF9093A5018093A40199
:10138000539A5B9A08959093A5018093A401539872
:101390005B9AEB9AE9E6F0E080818F738083089591
:1013A0006150770B91E001C0990F6A95EAF720E050
:1013B00031E0911108C0222391F05B9A80E28A9576
:1013C000F1F75B980895492F482339F05B9A23275A
:1013D00040E24A95F1F79695ECCF5B98F9CF5B9890
:1013E000EDCFFF920F931F93CF93DF93EC018C010E
:1013F000060F111DC017D10731F4DF91CF911F9156
:101400000F91FF900895F9900E94630968E08F2D75
:101410000E94D009EFCF1F920F920FB60F921124A6
:101420002F933F934F935F936F937F938F939F93EC
:10143000AF93BF93CF93DF93EF93FF935B98539A50
:10144000C091A401D091A5016D81662321F08E8108
:101450009F810E94F1090E94630980E18A95F1F75A
:101460005B9853985B9A80E18A95F1F76A816623CD
:1014700009F18B819C810E949509E881F98188237B
:1014800011F088E001C082E080830E945B09FF9137
:10149000EF91DF91CF91BF91AF919F918F917F910C
:1014A0006F915F914F913F912F910F900FBE0F90D1
:1014B0001F901895E881F981E4CFCF93DF93C09115
:1014C000A401D091A501F894539A5B9885E08A9580
:1014D000F1F7000053985B9A80E28A95F1F74B9BF5
:1014E0000CC0539A5B9AE881F98181E080837894FB
:1014F00081E090E0DF91CF9108956D81662381F0C6
:101500008E819F810E94950981110AC0539A5B9A2E
:10151000E881F98182E08083789482E090E0EACFEC
:101520000E945B0980E28A95F1F75B98539A80E10B
:101530008A95F1F76A81662321F08B819C810E9454
:10154000F1090E946309E881F9811082789490E0A2
:1015500080E0D0CF9093AB018093AA010895E091F1
:10156000AA01F091AB01309721F00190F081E02DBC
:10157000099480E00895E091AA01F091AB013097C1
:1015800021F00280F381E02D09940895E091AA01F1
:10159000F091AB01309739F022E0DC012C9304800C
:1015A000F581E02D099408952091A8013091A901B9
:1015B0002817390771F09093A9018093A801E09151
:1015C000AA01F091AB01309721F00680F781E02D60
:1015D000099408952091A6013091A7012817390791
:1015E00071F09093A7018093A601E091AA01F09178
:1015F000AB01309721F00084F185E02D0994089526
:1016000085B7806885BF85B7806885BF08950895D0
:1016100008950C94070B08950C940B0B0E94000B7B
:101620000E94080B0C94090B0E94F2160E9476058A
:101630000E9466170C940C0B7F928F929F92AF9230
:10164000BF92CF92DF92EF92FF920F931F93CF93AF
:10165000DF93CDB7DEB72A970FB6F894DEBF0FBE83
:10166000CDBF0E941B060E94F706882309F471C0B3
:101670004DEAA42E41E0B42E10E000E0702E802F41
:101680000E9467056C01F501819091905F018816B9
:10169000990609F458C080914B0281FD0E947005A3
:1016A00080E0EE24E394F12C8C249D2494012E21DF
:1016B0003F21232B09F441C08E837F82CE20DF207F
:1016C00081E0CD2809F480E088870E94FB168160C4
:1016D000782F9A8789874E815F8168858A850E94E5
:1016E000CE0B000F111FF801E355FE4F8081918151
:1016F000E826F926F182E0820E94F3180E94AF0AE0
:101700009091AC018917B1F10E94AF0A8093AC01AE
:101710002A960FB6F894DEBF0FBECDBFDF91CF91F2
:101720001F910F91FF90EF90DF90CF90BF90AF90FF
:101730009F908F907F900C94F9028F5FEE0CFF1CAE
:10174000893009F0B3CF0F5F1F4F0A30110509F040
:1017500095CF8FEF89838A831B820E94FB1681605D
:10176000782F9D838C8349815A816B818D810E9462
:10177000CE0BC2CF2A960FB6F894DEBF0FBECDBFF8
:10178000DF91CF911F910F91FF90EF90DF90CF905D
:10179000BF90AF909F908F907F900895CF93DF93ED
:1017A000CDB7DEB72B970FB6F894DEBF0FBECDBF17
:1017B0004F83588769877A878B871E821D8285E0D1
:1017C000FE013796DE01119601900D928A95E1F7A0
:1017D00049815A816B817C818D819E812B960FB6C8
:1017E000F894DEBF0FBECDBFDF91CF910C94C7112F
:1017F000FC01808191810C947D14CF93C82F8823A4
:1018000009F447C08CEF8C0F813AA0F46C2F8091C3
:10181000090190910A010E943516882329F08C2F26
:101820000E94B2140E941C158C2F0E94AB14CF9101
:101830000C941C1580E28C0F883048F4C77081E04E
:1018400001C0880FCA95EAF70E94D314F0CFEBE5E8
:10185000EC0FE33040F4F0E0E357FE4F808190E07E
:10186000CF910C94D40AE8E5EC0FE73150F4F0E0A6
:10187000EE0FFF1FE15AFE4F80819181CF910C94B2
:10188000EA0AC03F30F08C2F0E940118CF910C94CF
:10189000E818CF910895882361F19CEF980F913A51
:1018A00020F40E94B2140C941C1590E2980F98300A
:1018B00050F4877091E001C0990F8A95EAF7892F5B
:1018C0000E94D914F0CF9BE5980F933020F490E05C
:1018D00080E00C94D40A98E5980F973120F490E0BA
:1018E00080E00C94EA0A803F20F00E9469180C9472
:1018F000E8180895CF93C82F0E94FD0BC93349F40F
:101900002FEF87EE93E0215080409040E1F700C038
:1019100000008C2FCF910C944B0C882321F00E9457
:10192000D3140C941C150895882321F00E94D91417
:101930000C941C150895BF92CF92DF92EF92FF9204
:101940000F931F93CF93DF936C01D62FC72FFC010A
:10195000058102950F70128111110E94F0140E94EE
:10196000C914E82E882371F01123B1F080E28D0FA5
:10197000883090F082E00E9467150E94C91491E0BF
:10198000E82EE926BC2EB2949FE0B922EB2DF0E0C0
:10199000E05AFE4D0C940221E12CF4CF0C2F0F7075
:1019A000C07F11F00295007F1123A9F0002359F0A8
:1019B00080E28D0F883010F0D11109C0802F0E9475
:1019C000D3140E941C158D2F0E94FD0B14C0802F74
:1019D0000E94E314F6CF8D2F0E944B0C002359F088
:1019E00080E28D0F883010F0D1112CC0802F0E9422
:1019F000D9140E941C152B2D2850330B243031058F
:101A000020F40E94AF0A0E94F902EE2009F4D5C129
:101A10000E94C51480FDD1C1F60112820E94BF143C
:101A20000E944B13C6010E94E70E0E94BF14DF9173
:101A3000CF911F910F91FF90EF90DF90CF90BF90CB
:101A40000C946C13802F0E94E914D3CFFC2FFF70ED
:101A5000FF2EC07FC03219F0F29480EFF822DD2310
:101A600069F0D13049F1112391F1002351F1F601D0
:101A7000858180FFA8CF8F70858323C0112381F0DB
:101A8000011106C00E9403158F290E948D0CB3CF4F
:101A90000130C1F70E9403158F290E940915ABCFB1
:101AA000011106C00E9412158F2D0E94940CA3CF25
:101AB000013009F4A0CFF6CF112329F0063008F049
:101AC0009ACF8F2DE2CF053008F095CFEDCF0023D0
:101AD00059F3D93349F4FFEF27EE33E0F1502040BA
:101AE0003040E1F700C000008D2F0E944B0C83CFE7
:101AF0008C2F86958695837069F0813009F07BCFB5
:101B00008D2F9C2F9370111102C090E080E00E94F5
:101B1000EA0A71CF8D2F9C2F9370111102C090E0B3
:101B200080E00E94D40A67CF112309F1D53F99F0D4
:101B3000D63FB9F0D43F49F480919302909194023A
:101B4000816090939402809393028D2F0E940118DC
:101B50000E94E81850CF8091930290919402826085
:101B6000F0CF80919302909194028460EACFD53FA8
:101B700089F0D63FA9F0D43F49F480919302909127
:101B800094028E7F90939402809393028D2F0E94F3
:101B90006918DECF80919302909194028D7FF2CFED
:101BA00080919302909194028B7FECCF8C2F837065
:101BB00009F041C011111FCF4D2F42954695477036
:101BC000440F440F0D2F0F7010E030E020E0042E82
:101BD00004C0000F111F221F331F0A94D2F760E0C8
:101BE00070E0CB01D4FF0FC06FE070E080E090E0C8
:101BF00004C0660F771F881F991F4A95D2F760951A
:101C0000709580959095C695C695C370602B712B85
:101C1000822B932BC23049F058F4C13019F00E9446
:101C2000FD12E9CE0E94EB12E6CE0E940F13E3CE26
:101C30000E94E912E0CE8695112311F08C2F81705D
:101C4000882309F4D8CE4D2F429546954770440F0E
:101C5000440F0D2F0F7010E030E020E0042E04C080
:101C6000000F111F221F331F0A94D2F760E070E0AB
:101C7000CB01D4FF0FC06FE070E080E090E004C0C3
:101C8000660F771F881F991F4A95D2F76095709548
:101C900080959095C695C695C370602B712B822B4D
:101CA000932BC23049F058F4C13019F00E94C2138E
:101CB000A2CE0E94B0139FCE0E94D4139CCE0E944D
:101CC000251399CECF70112329F08C2F0E944B132E
:101CD0008D2FDBCE8D2F0E94940C8C2F0E946C13C5
:101CE0008ACED23F89F160F4D03FC9F0D13F29F1CB
:101CF000112309F442C0011166CE8C2F8F7121C0CF
:101D0000D33F39F1D43FA1F7112369F1CF718C2F63
:101D10000E944B1363E08C2F0E9452156CCE11234E
:101D200041F0053008F067CE8C2F8F710E948F1321
:101D300062CE063008F05FCEF7CF8C2F8F71112363
:101D400069F20E944B1357CE8C2F8F711123C9F368
:101D5000C5CF112329F08C2F8F710E9436134BCEE3
:101D60000E94311348CE81E00E946715023008F4CA
:101D700042CE82E00E9467153ECE002359F0D9334F
:101D800009F0B2CE8FEF97EEE3E081509040E04053
:101D9000E1F7A8CE8C2F8F71A1CF4C2F4F706D2FF4
:101DA000C6010E9452030E94611225CE4C2F4F7033
:101DB0006D2FC6010E9455031ECEDF91CF911F915A
:101DC0000F91FF90EF90DF90CF90BF9008950F9309
:101DD0001F93CF93DF93EC018B819C81892B29F09A
:101DE0008881998189238F3F29F4DF91CF911F91B9
:101DF0000F910895CE010E9417038823B1F36881E3
:101E000079818A810E9487148C010E94E6130E94C6
:101E1000E812B801CE01DF91CF911F910F910C9480
:101E20009B0C0E94F0140E9400150E941C150E9439
:101E30000D1A0E94E81890E080E00E94D40A90E019
:101E400080E00C94EA0A0E94B9140C94110F0E94CD
:101E5000E0140C94230FE92FE295EF70E250EE307E
:101E600070F4F0E0E059FE4D0C940221803F19F02F
:101E700020F4883E20F481E00895843FE1F380E07F
:101E80000895883EC0F3813FD1F7F5CF93FB8827B3
:101E900080F908950E947D140C942B0FCF93DF934B
:101EA00000D000D00F92CDB7DEB70F900F900F90FB
:101EB0000F900F90DF91CF910895CF93DF9300D0D3
:101EC00000D000D0CDB7DEB726960FB6F894DEBFAF
:101ED0000FBECDBFDF91CF9108951F93CF93DF93B6
:101EE000C091C20116E08091C3018C1304C0DF9140
:101EF000CF911F910895D0E01C9FF0011D9FF00D20
:101F00001124EC53FE4F40815181628173818481A1
:101F100095810E945D0F2196C770E5CF4091F40135
:101F20005091F5016091F6017091F7018091F801EF
:101F30009091F9010C945D0F1F93CF93DF938091E3
:101F4000F901807FC1F48091F6018823A1F080918E
:101F5000C201C091C3016091F4017091F5014091FB
:101F6000F7015091F801D62FD723DA01A095B0954B
:101F700016E0C81304C0DF91CF911F91089590E03F
:101F80004115510511F0DF3F31F401968770F1CF13
:101F90002A0F3B1F17C0189FF001199FF00D112445
:101FA000EC53FE4F21812713F0CF20812613EDCF74
:101FB00022812111EACF238134812417350740F390
:101FC000241B350B283C310500F72091F9012F70B7
:101FD00020612093F90126E0289FF001299FF00D50
:101FE0001124E753FE4F80818F708061808384EFDE
:101FF00091E00E94E70EDF91CF911F910C946D0F3D
:10200000BF92CF92DF92EF92FF920F931F93CF93E5
:10201000DF93CDB7DEB761970FB6F894DEBF0FBE82
:10202000CDBF8C0185E0F801DE011D9601900D9277
:102030008A95E1F7D8014C9111965C91119712960F
:10204000EC9012978091F7019091F801009709F4B4
:102050007FC12091F4013091F501622F63236F3F1E
:1020600009F476C11396CD90DC90B090F601BB20B8
:1020700009F411C1C816D906D0F1F601E81BF90B15
:10208000CF01FF24F394883C910508F0F12C809156
:10209000F901982F907FFF2009F4B8C091117FC0FB
:1020A000FE2C351329C0241327C0E11025C08F70E2
:1020B00080618093F9010E948E0F84EF91E00E946D
:1020C000E70E8091F901D80115968C938F2D6196BA
:1020D0000FB6F894DEBF0FBECDBFDF91CF911F9139
:1020E0000F91FF90EF90DF90CF90BF900895809573
:1020F00090958C0D9D1DC5CFCD2829F0852F84236B
:102100008F3F09F041C180E0B82FB170DB2E80FF16
:102110003CC08091C2012091C30136E0821315C0FA
:102120004D875E878D859E850E947D14292F22957F
:102130002F702230F0F0243018F59F70F1F0F80184
:102140009581907FD1F4D12C1EC090E0389FF00192
:10215000399FF00D1124EC53FE4F6181651306C0C9
:102160006081641303C06281E6120FC0019687701C
:10217000D5CF9F7011F0882331F3805E883018F33B
:10218000C8010E94E70EFD2CA1CFEE2009F49ECFDE
:102190008091F90181608093F901F12C97CF35137B
:1021A00006C0241304C0D801EE2009F49AC04D875C
:1021B0005E878D859E850E944A0F882319F1EE2047
:1021C00009F18091F901803270F02091F401309191
:1021D000F50138872F831986DB86CA868C87CE0166
:1021E00007960E94E70E86E0F801A4EFB1E00190A7
:1021F0000D928A95E1F70E949C0F0E948E0FFF249A
:10220000F39464CFC8010E94E70EF9CF911113C077
:102210007C2DD98AC88A6E2D89890E944E0F84EF41
:1022200091E00E94E70E86E0E4EFF1E0DF011D920D
:102230008A95E9F763C0351312C0241310C0E1106A
:102240000EC0F8018583C8010E94E70EE4EFF1E0BB
:1022500086E0DF011D928A95E9F7FB2C37CF4D8789
:102260005E878D859E850E944A0F882359F2EE2055
:1022700049F28091F901803208F4B5CF2091F40140
:102280003091F5013A8329831B82DD82CC828E83D3
:10229000CE010196A6CFC816D90698F1F601E81B23
:1022A000F90BCF01F12C883C910508F049C0FE2CB8
:1022B000EE2009F4A7CF351332C0241330C080912B
:1022C000F90180FD23C0982F907F01F1D801159668
:1022D0008C931597903F39F0982F907F905F8F7077
:1022E000892B15968C93C8010E94E70E86E0F801B1
:1022F000A4EFB1E001900D928A95E1F70E948E0F54
:10230000E5CE809590958C0D9D1DCCCF86E0F80193
:10231000A4EFB1E001900D928A95E1F7D7CE4D87F9
:102320005E878D859E850E944A0F81115CCF8091CA
:10233000F90181608093F901C8010E94E70EC6CEC1
:102340007C2DD98AC88A6E2D89890E944E0F6BCF49
:10235000EE2009F457CF4D875E878D859E850E94BC
:102360004A0FF82E882309F44DCF86E0F801A4EF38
:10237000B1E001900D928A95E1F784EF91E00E941F
:10238000F80B0E949C0FBACF81E08E25BDCE1F9323
:10239000CF93DF93CDB7DEB72C970FB6F894DEBF9F
:1023A0000FBECDBF4F83588769877A878B879C87FD
:1023B000CE0107960E940010882369F08A859B85CC
:1023C000892B39F04F815885842F85238F3F09F061
:1023D00071C016E05FC086E0FE013796DE011196FF
:1023E00001900D928A95E1F78A859B85892B89F367
:1023F00088859F8189238F3F61F32091C30130E05D
:10240000C9010196877099274091C20148171906A2
:1024100071F40E94270F1092C3011092C20186E04E
:10242000E4EFF1E0DF011D928A95E9F7D2CF96E063
:10243000929FD001939FB00D1124AC53BE4FFE016B
:10244000319601900D929A95E1F78093C3010E9415
:102450006D0FBFCF819FC00111248C539E4F0E94EE
:1024600000108823E9F0E091C2011E9FF0011124C1
:10247000EC53FE4F4081518162817381848195814B
:102480000E945D0F8091C20190E0019687709927AC
:102490008093C2018091C2019091C3018913DACF68
:1024A0002C960FB6F894DEBF0FBECDBFDF91CF9153
:1024B0001F91089569857A858B859C850E945D0FA3
:1024C00088CFEF92FF920F931F93CF93DF938C01EE
:1024D000892B81F0F12CEE24E394E8012196F80198
:1024E0008491843770F4843008F05FC08130B1F09B
:1024F0008230A1F1DF91CF911F910F91FF90EF906A
:102500000895853709F44CC008F43DC09CE7980F46
:10251000903780F78F770E944B0C49C00E5F1F4F9A
:10252000FE01849190E2980F983060F48770FE2D40
:1025300001C0FF0F8A95EAF78F2F0E94F3140E94C3
:102540001C1502C00E94FD0B8F2D815030F2EFE967
:10255000FFE03197F1F700C00000F7CF0E5F1F4F8B
:10256000FE01849190E2980F983050F48770FE2D10
:1025700001C0FF0F8A95EAF78F2F0E94F914DFCF71
:102580000E944B0CE1CF0E5F1F4FFE01C491C15062
:10259000D8F28FE99FE00197F1F700C00000F7CF74
:1025A0000E5F1F4FFE01F490CFCF0E94FD0B8E01F6
:1025B000CBCF08950C94D9120E94DA1260933A029C
:1025C00070933B0280933C0290933D020C94110F58
:1025D00008950C94DC120F931F9300913A0210910E
:1025E0003B0220913C0230913D02602B712B822BEB
:1025F000932B1F910F910C94DC120F931F9300915A
:102600003A0210913B0220913C0230913D0260233E
:102610007123822393231F910F910C94DC120F934B
:102620001F9300913A0210913B0220913C0230919D
:102630003D0260277127822793271F910F910C94E9
:10264000DC120C94D9120C9421130E942313609372
:1026500036027093370280933802909339020C94BB
:10266000110F60E070E0CB010C9425130F931F93C2
:1026700041E050E060E070E08A019B0104C0000F7F
:10268000111F221F331F8A95D2F7C901B8011F916C
:102690000F910C9425130F931F9341E050E060E0DD
:1026A00070E004C0440F551F661F771F8A95D2F74C
:1026B0008091360290913702A0913802B091390290
:1026C0008A019B01082B192B2A2B3B2BC901B8012E
:1026D0001F910F910C9425130F931F9341E050E02D
:1026E00060E070E004C0440F551F661F771F8A9595
:1026F000D2F7CB01BA0160957095809590950091C5
:10270000360210913702209138023091390260234D
:102710007123822393231F910F910C9425130F9300
:102720001F9341E050E060E070E004C0440F551F8B
:10273000661F771F8A95D2F78091360290913702F3
:10274000A0913802B09139028A019B01082719270C
:102750002A273B27C901B8011F910F910C9425131B
:102760000F931F9300913602109137022091380287
:1027700030913902602B712B822B932B1F910F917B
:102780000C9425130F931F9300913602109137027A
:1027900020913802309139026023712382239323E0
:1027A0001F910F910C9425130F931F9300913602E4
:1027B0001091370220913802309139026027712739
:1027C000822793271F910F910C942513089529E0D8
:1027D000929F800D1124982F977041E001C0440F03
:1027E0009A95EAF786958695869595E0899FF001FA
:1027F0001124E650FE4F90E080E070E05191DF013F
:1028000011979B01082E02C0369527950A94E2F78E
:10281000217021952527242325272C930196853087
:10282000910561F7089529E0929F800D1124982F5A
:10283000977086958695869525E0829FF0011124F4
:10284000E650FE4F50E040E080E0219130E0092E5C
:1028500002C0369527950A94E2F721703327042E9B
:1028600001C0220F0A94EAF7822B4F5F5F4F453079
:10287000510559F70895BF92CF92DF92EF92FF92E0
:102880000F931F93CF93DF938C01C0903602D090AB
:102890003702E0903802F090390280913A0290912C
:1028A0003B02A0913C02B0913D02C82AD92AEA2AF3
:1028B000FB2ACFE1D0E0BC2ED701C6010C2E04C00C
:1028C000B695A795979587950A94D2F780FD0EC087
:1028D000219788F7B12C8B2DDF91CF911F910F910C
:1028E000FF90EF90DF90CF90BF900895B8018C2FAC
:1028F0000E947203019761F3EECFCF93DF93EC0157
:102900000E943B14BE01DF91CF910C9472031F9380
:10291000CF93DF93EB019091C101992331F0CB016B
:10292000DF91CF911F910C947D14882379F0CB0116
:102930000E943B14182F682FCE010E94E713BE019E
:10294000812FDF91CF911F910C947203CB010E94D4
:102950001314182FF4CF682F8091090190910A0168
:102960000C946B16682F8091090190910A010C94C8
:102970006D168091090190910A010C946F16809157
:102980003E02859585958595089580913E028770D4
:10299000089590913E02977081E009F480E00895D7
:1029A00080914A02089590914A02892B80934A02AD
:1029B0000895809590914A02982390934A02089531
:1029C00010924A02089590914902892B80934902FE
:1029D0000895809590914902982390934902089513
:1029E00010924902089590914802892B80934802E1
:1029F00008958095909148029823909348020895F5
:102A000010924802089580913F02089508950C9411
:102A1000061590913F02981721F080933F020C9485
:102A20000715089580913F02882329F010923F02F4
:102A300080E00C9407150895E0910901F0910A01D6
:102A400080914A028083E0910901F0910A0180811E
:102A500090914902892B8083E0910901F0910A014C
:102A6000808190914802892B808390913F02992325
:102A700081F0E0910901F0910A018081892B808326
:102A80008091090190910A010E94231681110E94F0
:102A900012158091090190910A010C94BB0A0895C6
:102AA0000C944F1598E0899F90011124622B60933C
:102AB0003E020E944B1380913E0285958595859537
:102AC0000C94501510923E0280E00C945015909199
:102AD0003E028095892380933E02282F277071F44F
:102AE000282F082E000C330B9217130639F085950A
:102AF000859585950E946C130C946215089590E05D
:102B000080E00E94242121E08C3E9E4F09F020E0CD
:102B1000822F089582E090E00C941C2183E090E0E5
:102B20000C941C21CF9384E090E00E941C21C82FBC
:102B300081E290E00E941C21982F8C2FCF91089564
:102B4000CF93C92F682F84E090E00E942A216C2F38
:102B500081E290E0CF910C942A21AB01BC018FE07F
:102B600090E00C943C21AB01BC0183E190E00C941B
:102B70003C2160E070E0CB010C94B31560E070E0A4
:102B8000CB010E94AD150C94B9156CEE7EEF90E070
:102B900080E00E94482160E082E090E00E942A21CB
:102BA00060E083E090E00E942A2110923A021092A5
:102BB0003B0210923C0210923D0260E084E090E003
:102BC0000E942A2160E081E290E00E942A2160E0D8
:102BD00085E090E00E942A2160E086E090E00E947B
:102BE0002A216FEF87E090E00E942A2140E050E028
:102BF000BA0188E090E00E943C2160E08DE090E026
:102C00000E942A2140E050E0BA0188E190E00E9451
:102C10003C2160E087E190E00E942A2140E050E002
:102C2000BA018CE190E00E943C2160E080E290E0FB
:102C30000E942A210C94BE150C94C515682F8EE0B5
:102C400090E00C942A219C012E5F3F4FAC01485F1D
:102C50005F4F80E02417350709F40895F901919139
:102C60009F019923B9F38F5FF5CF662349F0FC01EB
:102C7000329608962191261729F0E817F907D1F71F
:102C800080E0089581E008959C01FC0132969FEF59
:102C900080E04191461751F09F3F19F4411101C066
:102CA000982F8F5F8630A9F79F3F09F40895290F69
:102CB000311D97FD3A95F90162830895FC01329622
:102CC00008962191261303C0DF0111971C92E81783
:102CD000F907B9F708950C9444160C945E16029601
:102CE00026E0FC0111922A95E9F7089508950895C8
:102CF0000C9477160E94781680919F02843049F1D7
:102D000010924C0288E190E020E40FB6F894A89568
:102D1000809360000FBE2093600080E00E94F90263
:102D20000E94781683B7817F846083BF83B78160F8
:102D300083BF7894889583B78E7F83BF0FB6F8944E
:102D4000A895809160008861809360001092600077
:102D50000FBE08950895CF930E9476160E941B0619
:102D60000E94AA16C0E08C2F0E946705892B31F4BF
:102D7000CF5FCA30C1F780E0CF91089581E0FCCFEA
:102D800008950C94C0160E94270F0E94AF0A0E945B
:102D9000F9020C94C1161F921FB61F9211248F9333
:102DA0009F93AF93BF9380914C02811113C0809188
:102DB000950290919602A0919702B0919802419647
:102DC000A11DB11D8093950290939602A093970246
:102DD000B0939802BF91AF919F918F911F901FBEAA
:102DE0001F90189582E084BD93E095BD9AEF97BD42
:102DF00080936E0008952FB7F8948091950290917A
:102E00009602A0919702B09198022FBF0895CF9299
:102E1000DF92EF92FF920F931F932FB7F894409198
:102E200095025091960260919702709198022FBF7F
:102E30006A017B01EE24FF248C0130E020E0C01603
:102E4000D106E206F30650F0481B590BCA011F9148
:102E50000F91FF90EF90DF90CF900895415051096E
:102E6000F3CF78941F921FB61F9211248F939F93D4
:102E7000AF93BF938091950290919602A091970293
:102E8000B09198020196A11DB11D80939502909377
:102E90009602A0939702B0939802BF91AF919F9131
:102EA0008F911F901FBE1F90189587E797E790930B
:102EB00001088093000888E19AE00FB6F894A8957D
:102EC000809360000FBE90936000FFCF0E947F153B
:102ED000811102C00E941C160E948A1580934B0229
:102EE0000E94921590939A02809399020E948E15E7
:102EF000682F70E090E080E00C94E9128091570216
:102F000080FF12C060910E0185E0689FB00111241E
:102F1000759567957595679560387105A8F5611584
:102F20007105A1F1862F089581FF09C060910E01FE
:102F300085E0689FB001112475956795EDCF60918C
:102F40000E0182FD0AC0809156028823D1F0909133
:102F50004E0260910E01891728F085E0689FB0014C
:102F60001124DACF869FB001112485E0869F90015D
:102F7000879F300D1124692F70E0C9010E94EE2057
:102F8000CBCF65E070E0CECF8FE7089581E0089564
:102F90008091570280FF0CC060910B0170E0759525
:102FA0006795759567956115710549F1862F0895A7
:102FB00081FF06C060910B0170E075956795F3CFB6
:102FC00060910B0182FD0BC0909156029923A1F0F4
:102FD00060914D0280910B01961738F0682F70E0D8
:102FE0006038710500F38FE70895899FC0011124AF
:102FF00070E00E94EE20F4CF61E070E0D7CF81E076
:103000000895803F31F40E947E17819580935B0282
:103010000895813F19F40E947E17F8CF823F31F462
:103020000E947E17819580935A020895833F19F478
:103030000E947E17F8CF893F29F40E94C817809319
:103040005C0208958A3F21F40E94C8178195F7CF4A
:103050008B3F31F40E94C817819580935D020895DB
:103060008C3F19F40E94C817F8CF843F31F4809147
:1030700059028160809359020895853F21F480911F
:1030800059028260F7CF863F21F480915902846013
:10309000F1CF873F21F4809159028860EBCF883FC0
:1030A00021F4809159028061E5CF8D3F31F4809108
:1030B000570281608093570208958E3F21F48091DA
:1030C00057028260F7CF8F3FB9F780915702846033
:1030D000F1CF90915A02803F41F480915B0287FDCD
:1030E00010925B02992371F00895813F29F4809139
:1030F0005B021816ACF3F6CF823F81F497FFF2CF54
:1031000010925A0280915B0290915C02892B9091FF
:103110005D02892B49F7109256020895833F19F4F6
:10312000191674F3DFCF893F39F480915C021816C9
:10313000CCF610925C02D6CF8A3F29F480915C02D3
:1031400087FFD0CFF6CF8B3F39F480915D0287FFA8
:10315000C9CF10925D02C6CF8C3F29F480915D02E9
:103160001816BCF3BFCF843F31F4809159028E7F93
:1031700080935902B7CF853F21F4809159028D7F0A
:10318000F7CF863F21F4809159028B7FF1CF873FA3
:1031900021F480915902877FEBCF883F21F4809101
:1031A00059028F7EE5CF8D3F31F4809157028E7F9B
:1031B0008093570297CF8E3F21F4809157028D7FE5
:1031C000F7CF8F3F09F08ECF809157028B7FF0CFE2
:1031D00088E592E00E94C60A0E94FB169093550271
:1031E000809354020895CF93DF9300D000D000D095
:1031F000CDB7DEB786E0E8E5F2E0DE01119601909A
:103200000D928A95E1F780915A0290915B02892B89
:1032100081F080915202909153020E940717AC01F5
:1032200090915602992331F180914F02841715062F
:1032300070F180915C0290915D02892B91F08091F8
:103240005002909151020E940717AC0190915602D2
:10325000992309F478C080910C018417150608F4AD
:1032600080C026960FB6F894DEBF0FBECDBFDF91AB
:10327000CF91089520910F018AE0289F9001112499
:1032800024173507B0F69F5F9093560202C09F3F08
:10329000D1F710925C0210925D0280915A021816CA
:1032A00024F40E947E1780935A0280915A0287FF6D
:1032B00005C00E947E17819580935A0280915B021F
:1032C000181624F40E947E1780935B0280915B02A3
:1032D00087FF05C00E947E17819580935B02309125
:1032E0005A023323A1F020915B02222381F045EBA7
:1032F0003403C00111249923F1F090935A0245EB55
:103300002403900111243323D1F030935B020E94F7
:10331000E818809154029091550290935302809343
:10332000520286E0FE013196A8E5B2E001900D92CE
:103330008A95E1F77ECF81E080935A02E0CF81E069
:1033400080935B02E4CF20910D018AE0289F9001D9
:1033500011242417350708F084CF9F5F90935602FD
:1033600002C09F3FD1F710925A0210925B028091E7
:103370005C02181624F40E94C81780935C028091A6
:103380005C0287FF05C00E94C817819580935C028C
:1033900080915D02181624F40E94C81780935D0284
:1033A00080915D0287FF05C00E94C81781958093B8
:1033B0005D0230915C023323A1F020915D02222353
:1033C00081F045EB3403C00111249923F1F090936F
:1033D0005C0245EB2403900111243323D1F0309398
:1033E0005D020E94E81880915402909155029093DA
:1033F00051028093500286E0FE013196A8E5B2E0CA
:1034000001900D928A95E1F72CCF81E080935C02C8
:10341000E0CF81E080935D02E4CF86E0E8E5F2E072
:10342000DF011D928A95E9F7109256021092570219
:103430000895809166020895CF93DF9300D00F9294
:10344000CDB7DEB790919F02943019F589837B83C5
:103450006A8382E08093E9008FEF9091E8008150C9
:1034600095FD06C095ED9A95F1F700008111F5CF15
:103470008091E80085FF0DC050E040E063E070E01F
:10348000CE0101960E945D1C8091E8008E778093AA
:10349000E8000F900F900F90DF91CF910895CF9398
:1034A000DF93EC010E94401C823011F0843031F433
:1034B000BE0184E0DF91CF910C941C1ADF91CF9173
:1034C0000895BC0183E00C941C1ACF93DF93EC01A8
:1034D0000E94401C823011F08430F9F482E0809325
:1034E000E9008FEF9091E800815095FD06C095EDC1
:1034F0009A95F1F700008111F5CF8091E80085FFE2
:103500000CC050E040E066E070E0CE010E945D1C1F
:103510008091E8008E778093E800DF91CF91089545
:10352000CF93DF93EC010E94401C823011F0843075
:1035300039F581E08093E9008FEF9091E8008150A8
:1035400095FD06C095ED9A95F1F700008111F5CF34
:103550008091E80085FF14C050E040E068E070E032
:10356000CE010E945D1C8091E8008E778093E80078
:1035700088E0FE01AEE5B2E001900D928A95E1F798
:10358000DF91CF91089580919E02811109C00E9420
:10359000ED1D0E944A1E8091E20084608093E2004B
:1035A000089510929E020895089508950C94C316EC
:1035B00042E061EC81E00E94691D42E261EC82E040
:1035C0000C94691D8091A102833009F45FC030F42E
:1035D0008130C1F1823009F49BC008958A3009F42A
:1035E00087C08B3009F46DC0893009F04EC08091DE
:1035F000A002813209F049C08091A4029091A502F5
:10360000029708F042C08091E800877F8093E8002D
:103610008091E80082FF35C09091F3008091F20024
:10362000029729F48091F1008B7F813021F4809101
:10363000F100809366028091E8008B778093E80028
:103640000C949D1D8091A002813AF9F48091E800CC
:10365000877F8093E8008091A4029091A502892B36
:1036600061F468E08EE592E070E00E94AC1C80910D
:10367000E8008B778093E800089560E090E080E0B8
:10368000F3CF80919F028111C3CF08958091A00252
:10369000813AD9F78091A4029091A502892BA9F7CC
:1036A0008091E800877F8093E8008091E80080FFA8
:1036B000FCCF80911A018093F1008091E8008E7711
:1036C000BDCF8091A002813201F78091A402909138
:1036D000A502892BD1F68091E800877F8093E800CE
:1036E0000E949D1D8091A20280931A010C94270FC5
:1036F0008091A002813249F68091E800877F809313
:10370000E8000E949D1D8091A302809367020895A6
:103710008091A002813A09F0B8CF8091E800877FBC
:103720008093E8008091E80080FFFCCF80916702E1
:10373000C2CF84B7877F84BF0FB6F894A8958091D5
:103740006000886180936000109260000FBE80E886
:1037500090E00FB6F89480936100909361000FBEE3
:103760000E940E0B0E94ED1D0E944A1E8091E200F5
:1037700084608093E20078940E94D3200E94140B0E
:1037800080E191E00E94AA0A80919F02853019F0A1
:103790000E941C0BF9CF0E947A1680919D0288230B
:1037A00099F30E94AB16882379F30E94471CECCF53
:1037B0000C94DA1B292F33272330310519F168F4D3
:1037C0002130310509F44AC02230310509F44BC0DB
:1037D00090E080E030E020E028C02132310579F12E
:1037E00022323105A9F780E490E020E834E0611549
:1037F0007105D9F081E890E02FEF33E06130710579
:10380000A1F0E6CF99278130910599F0009741F01A
:103810008230910589F00397D9F6ECE7F3E002C016
:10382000EEEAF3E0849190E09F01FA013183208376
:103830000895E4E9F3E0F6CFE2E8F3E0F3CF89E0BE
:1038400090E024EC33E06115710579F389E090E0B4
:103850002DED33E06130710541F3BACF82E190E0A4
:103860002DEE33E0E2CF8BE390E022EB33E0DDCFCF
:1038700080919F02843011F482E0089581E00895E0
:1038800080916802811102C00C94381C089580E177
:1038900089BD82E189BD09B400FEFDCF8091D800C9
:1038A0008F7D8093D8008091E00082608093E0005B
:1038B0008091E00081FDFCCF0895AF92BF92CF923E
:1038C000DF92FF920F931F93CF93DF936C01EB0175
:1038D0008A010E94BC1DF82E811123C0011511051B
:1038E00039F0F80180819181C81BD90BC80ED91E0F
:1038F000B12CA12C2097A9F08091E80085FD22C071
:103900008091E8008E778093E80001151105A1F001
:10391000F80180819181A80EB91EB182A08285E054
:10392000F82E8F2DDF91CF911F910F91FF90DF9097
:10393000CF90BF90AF9008950E94BC1D8823D1F214
:10394000F82EEFCFF60181916F018093F10021975E
:10395000FFEFAF1ABF0ACECFFC018091A602909173
:10396000A70286179707A0F06115710529F49091B9
:10397000E8009E779093E80090E06115710551F49E
:10398000911108C08091E80082FF34C080E0089562
:10399000BC01F2CF80919F028823C1F18530C1F133
:1039A0008091E80083FD30C08091E80082FDEACF7D
:1039B0008091E80080FFE1CF8091F3002091F20038
:1039C000382F6115710519F02830310558F091E054
:1039D0002830310509F090E02091E8002E772093FF
:1039E000E800CBCF81918093F100615071092F5F86
:1039F0003F4FE7CF80919F02882341F0853041F00F
:103A00008091E80083FFBECF81E0089582E00895B1
:103A100083E00895FC018091A6029091A702861789
:103A20009707A0F06115710529F48091E8008E7761
:103A30008093E80090E06115710551F4911108C080
:103A40008091E80082FF35C080E00895BC01F2CF8C
:103A500080919F028823C9F18530C9F18091E800E7
:103A600083FD31C08091E80082FDEACF8091E800BB
:103A700080FFE1CF8091F3002091F200382F611593
:103A8000710519F02830310558F091E028303105E2
:103A900009F090E08091E8008E778093E800CBCF2A
:103AA00084918093F1003196615071092F5F3F4FEF
:103AB000E6CF80919F02882341F0853041F08091CC
:103AC000E80083FFBDCF81E0089582E0089583E0A0
:103AD0000895982F973028F08F708093E90081E047
:103AE00008959093E900242F762F50E0981731F035
:103AF0007091EC002091ED005091F00021FD02C08A
:103B00009F5FE8CF3091EB003E7F3093EB00309128
:103B1000ED003D7F3093ED003091EB00316030934C
:103B2000EB007093EC002093ED005093F000209197
:103B3000EE0027FDE5CF80E008958091A00287FF89
:103B400013C08091E80082FF06C08091E8008B7767
:103B50008093E80004C080919F028111F2CF089504
:103B600080919F028823D9F38091E80080FFF8CFED
:103B70008091E8008E77ECCF2091E4003091E50051
:103B800095E6A9012091EC00822F817020FF06C0EC
:103B90008091E80080FF06C080E008952091E80051
:103BA00022FD1AC080919F02882389F0853089F018
:103BB0008091EB0085FD0FC02091E4003091E5007D
:103BC00042175307F9F29150E1F684E0089582E03C
:103BD000089583E0089581E008950E945B1E0E948D
:103BE000631EE0EEF0E0808181608083E8EDF0E02C
:103BF00080818F77808319BCA7EDB0E08C918E7F98
:103C00008C9380818F7E808310929E0208950F9303
:103C10001F93CF93DF930E945B1E0E94631EC8ED2B
:103C2000D0E088818F7788838881806888838881C5
:103C30008F7D888319BC10929F0210929B02109274
:103C40009D0210929C0200EE10E0F80180818B7FB3
:103C5000808388818160888342E060E080E00E9408
:103C6000691DE1EEF0E080818E7F8083E2EEF0E07E
:103C7000808181608083808188608083F801808179
:103C80008E7F8083888180618883DF91CF911F91AF
:103C90000F910895E8EDF0E080818F7E8083E7ED5D
:103CA000F0E080818160808384E082BF81E0809346
:103CB0009E020C94071EE8EDF0E080818E7F8083E9
:103CC0001092E20008951092DA001092E100089537
:103CD0001F920F920FB60F9211242F933F934F9381
:103CE0005F936F937F938F939F93AF93BF93EF9364
:103CF000FF938091E10082FF0BC08091E20082FF80
:103D000007C08091E1008B7F8093E1000E94D22068
:103D10008091DA0080FF19C08091D80080FF15C023
:103D20008091DA008E7F8093DA008091D90080FF45
:103D300096C080E189BD82E189BD09B400FEFDCF56
:103D400081E080939F020E94C31A8091E10080FF6E
:103D500019C08091E20080FF15C08091E2008E7F43
:103D60008093E2008091E20080618093E200809184
:103D7000D80080628093D80019BC85E080939F02B0
:103D80000E94D51A8091E10084FF2BC08091E2004F
:103D900084FF27C080E189BD82E189BD89B5982F64
:103DA000917080FFFBCF8091D8008F7D8093D800E9
:103DB0008091E1008F7E8093E1008091E2008F7E10
:103DC0008093E2008091E20081608093E200809124
:103DD0009B02882309F449C084E080939F020E94DB
:103DE000D61A8091E10083FF29C08091E20083FF11
:103DF00025C08091E100877F8093E10082E080937D
:103E00009F0210929B028091E1008E7F8093E100DF
:103E10008091E2008E7F8093E2008091E2008061D9
:103E20008093E20042E060E080E00E94691D8091A2
:103E3000F00088608093F0000E94D41AFF91EF9107
:103E4000BF91AF919F918F917F916F915F914F91B2
:103E50003F912F910F900FBE0F901F90189519BC96
:103E600010929F020E94D11A70CF8091E30087FDCB
:103E700093E090939F02B3CF1F920F920FB60F92D1
:103E800011242F933F934F935F936F937F938F935F
:103E90009F93AF93BF93CF93DF93EF93FF93D09113
:103EA000E900DF708091EC00C82FC17080FDC0E890
:103EB0001092E9008091F000877F8093F000789461
:103EC0000E94801F1092E9008091F000886080932A
:103ED000F000CD2BCF70C093E900FF91EF91DF91FF
:103EE000CF91BF91AF919F918F917F916F915F9192
:103EF0004F913F912F910F900FBE0F901F901895EB
:103F00001F93CF93DF93CDB7DEB7AA970FB6F89480
:103F1000DEBF0FBECDBF80EA92E02091F100FC0130
:103F20002193CF01F2E0883A9F07B9F70E94E21A85
:103F30008091E80083FF1EC18091A0029091A102B0
:103F40009A3008F017C1E92FF0E0E258FE4D0C94CA
:103F50000221803899F0823809F00CC18091A402C6
:103F60008F70873008F006C18093E9008091EB00E4
:103F700085FB882780F91092E90006C080919C0299
:103F800090919D02911182609091E800977F9093AB
:103F9000E8008093F1001092F1008091E8008E77A4
:103FA000E5C0882309F4D3C0823009F0E3C08091D2
:103FB000A2028111D6C08091A4028F702FEF280F2A
:103FC000263008F0D7C08093E9002091EB0020FF55
:103FD000C8C0933031F48091EB0080628093EB0095
:103FE000C0C09091EB0090619093EB0021E030E035
:103FF00001C0220F8A95EAF72093EA001092EA00A6
:104000008091EB008860EACF8111B4C01091A202C8
:104010001F778091E3008078812B8093E30080916B
:10402000E800877F8093E8000E949D1D8091E80052
:1040300080FFFCCF8091E30080688093E30082E002
:10404000111183E080939F0295C08058823008F060
:1040500091C08091A2029091A3028C3D23E092072F
:10406000A1F583E08A838AE289834FB7F894DE0161
:10407000139620E03EE051E2E32FF0E0509357002A
:10408000E49120FF03C0E295EF703F5FEF708E2F49
:1040900090E0EA30C0F0C7968D939D932F5F243156
:1040A00059F74FBF8091E800877F8093E8006AE26C
:1040B00070E0CE0101960E94AC1C8091E8008B77E5
:1040C0008093E80057C0C096E7CF6091A40270913A
:1040D000A502AE014F5F5F4F0E94D81BBC01892B28
:1040E00009F448C09091E800977F9093E800898197
:1040F0009A810E940A1DE1CF8038E1F58091E800A5
:10410000877F8093E80080919B028093F10045CFE8
:10411000811130C09091A202923060F58091E80048
:10412000877F8093E80090939B020E949D1D809161
:104130009B02882311F084E005C08091E30087FD95
:10414000FACF81E080939F020E94D81A13C0809119
:10415000A202813079F481E0933009F080E080930D
:104160009D021092E9008091E800877F8093E8002B
:104170000E949D1D8091E80083FF0AC08091E800A5
:10418000877F8093E8008091EB0080628093EB0052
:10419000AA960FB6F894DEBF0FBECDBFDF91CF91C8
:1041A0001F9108950895CF9380919F028823A1F0D5
:1041B000C091E900CF709091EC00892F817090FD43
:1041C00080E8C82B1092E9008091E80083FD0E94EE
:1041D000801FCF70C093E900CF91089597FB072E01
:1041E00016F4009407D077FD09D00E94082107FC3F
:1041F00005D03EF4909581959F4F089570956195F7
:104200007F4F0895EE0FFF1F0590F491E02D099464
:10421000AA1BBB1B51E107C0AA1FBB1FA617B707EC
:1042200010F0A61BB70B881F991F5A95A9F7809508
:104230009095BC01CD010895F999FECF92BD81BD45
:10424000F89A992780B50895A8E1B0E042E050E0DF
:104250000C945021262FF999FECF92BD81BDF89A7A
:10426000019700B4021639F01FBA20BD0FB6F894BA
:10427000FA9AF99A0FBE08950396272F0E942B21D0
:104280000E942A21252F0E942B21242F0C942B21C0
:104290000196272F0E942B210C942A21DC01CB01AF
:1042A000FC01F999FECF06C0F2BDE1BDF89A319646
:1042B00000B40D9241505040B8F70895F894FFCFE4
:1042C000CE0CCE0C260D260D780D940DFB0CFB0CA0
:1042D000D60D620E710E710ECD0EFB0CFB0CD60EC0
:1042E000360F360F3F0F3F0F410F3F0F3F0F3F0F6E
:1042F000360F360F460F3F0F3F0F460FA91FD11F36
:10430000BA20D11FBA2004202520BA207C20882082
:104310000195010096010A9601400201321E050531
:10432000191A901A651A611A4F1A01E200E900EA97
:1043300000B500B600B700CD008301CC008A019221
:104340000194012102230224022502260227022AC7
:1043500002B300B4006F007000818283F4F5F6F7B9
:1043600031333236916697C634350000000000E2E2
:1043700000E900EA00B500B600B700CD008301CC2B
:10438000008A0192019401210223022402250226BF
:104390000227022A02B300B4006F007000818283FA
:00000001FF
